:100000000C9434000C943E000C943E000C945B0065
:100010000C943E000C943E000C943E000C943E0068
:100020000C943E000C943E000C943E000C943E0058
:100030000C943E000C943E000C943E000C943E0048
:100040000C943E000C943E000C943E000C943E0038
:100050000C943E000C9440000C943E000C944B0019
:100060000C943E000C943E0011241FBECFEFD8E04C
:10007000DEBFCDBF0E946B000C94A9000C94000061
:100080008F93809178008093010380917900809311
:1000900002038F9118958F938FB78F93EF93FF93F0
:1000A000E3E0F3E080818F5F8083FF91EF918F9198
:1000B0008FBF8F9118958F938FB78F93EF93FF9387
:1000C000E4E0F3E080818F5F8083FF91EF918F9177
:1000D0008FBF8F911895E0E0F3E01192E73083E055
:1000E000F807D9F787EA8093000380E480937C00C7
:1000F0008FE880937A0083B7817F83BF83B7816065
:1001000083BF7894889583B78E7F83BFF8941092CD
:100110007A008BE180BF81E080936B008BBB809382
:10012000680083B7817F846083BF83B7816083BFAA
:100130007894889583B78E7F83BFF89480B785FBCA
:10014000882780F9809305038CE5809306030000DF
:06015000FECFF894FFCF82
:00000001FF
