:100000000C9463000C948B000C948B000C944003B4
:100010000C9440030C9440030C948B000C948B00C4
:100020000C948B000C948B000C948B000C948B0024
:100030000C948B000C948B000C948B000C948B0014
:100040000C949E020C948B000C940E030C94E8020A
:100050000C948B000C948B000C948B000C948B00F4
:100060000C948B000C948B000000000024002700EF
:100070002A0000000008000201000003040700003D
:1000800000000000000000000000230026002900FE
:1000900000000000250028002B00040404040404D0
:1000A0000404020202020202030303030303010227
:1000B00004081020408001020408102001020408F6
:1000C00010200404060611241FBECFEFD8E0DEBFC7
:1000D000CDBF11E0A0E0B1E0EAE6FCE002C005908F
:1000E0000D92A432B107D9F722E0A4E2B1E001C039
:1000F0001D92A033B207E1F710E0C2E6D0E004C0E1
:100100002197FE010E942206C136D107C9F70E943D
:10011000AF040C9428060C940000CF93DF9390E07A
:10012000FC01E255FF4F249186569F4FFC018491BC
:100130008823C9F090E0880F991FFC01E859FF4F10
:10014000A591B491FC01E057FF4FC591D491611185
:100150000DC09FB7F8948C91209582238C93888151
:10016000282328839FBFDF91CF910895623051F4F7
:100170009FB7F8943C91822F809583238C93E881DC
:100180002E2BEFCF8FB7F894EC912E2B2C938FBFA3
:10019000EACFAF92BF92CF92DF92EF92FF920F938E
:1001A0001F93CF93DF936C017B018B01040F151F0D
:1001B000EB015E01AE18BF08C017D10759F0699175
:1001C000D601ED91FC910190F081E02DC6010995D9
:1001D000892B79F7C501DF91CF911F910F91FF9086
:1001E000EF90DF90CF90BF90AF900895FC01538DBA
:1001F000448D252F30E0842F90E0821B930B541701
:1002000010F0CF96089501970895FC01918D828D8D
:10021000981761F0A28DAE0FBF2FB11D5D968C9126
:10022000928D9F5F9F73928F90E008958FEF9FEF65
:100230000895FC01918D828D981731F0828DE80F21
:10024000F11D858D90E008958FEF9FEF0895FC01DB
:10025000918D228D892F90E0805C9F4F821B9109A8
:100260008F739927089584E791E00E94270121E088
:10027000892B09F420E0822F089580E090E0892BFB
:1002800029F00E94330181110C9400000895FC01B3
:10029000A48DA80FB92FB11DA35ABF4F2C91848DE7
:1002A00090E001968F739927848FA689B7892C9344
:1002B000A089B1898C91837080648C93938D848D97
:1002C000981306C00288F389E02D80818F7D80839A
:1002D0000895EF92FF920F931F93CF93DF93EC015A
:1002E00081E0888F9B8D8C8D98131AC0E889F989DD
:1002F000808185FF15C09FB7F894EE89FF896083E0
:10030000E889F98980818370806480839FBF81E060
:1003100090E0DF91CF911F910F91FF90EF900895A2
:10032000F62E0B8D10E00F5F1F4F0F731127E02E7D
:100330008C8D8E110CC00FB607FCFACFE889F989B5
:10034000808185FFF5CFCE010E944701F1CFEB8D73
:10035000EC0FFD2FF11DE35AFF4FF0829FB7F89489
:100360000B8FEA89FB8980818062CFCFCF93DF93A7
:10037000EC01888D8823B9F0AA89BB89E889F989BD
:100380008C9185FD03C0808186FD0DC00FB607FCF2
:10039000F7CF8C9185FFF2CF808185FFEDCFCE0125
:1003A0000E944701E9CFDF91CF9108952091660126
:1003B000309167012817390771F490916401809199
:1003C0006501981741F0E0916401F0E0EC5DFE4FAB
:1003D000808190E008958FEF9FEF08950895EF9248
:1003E000FF920F931F93CF93DF93DC015C96ED9008
:1003F000FC905D97E114F10479F481E090E01396AC
:100400009C938E93129790E080E0DF91CF911F91A3
:100410000F91FF90EF9008955196ED91FC915297B6
:1004200050968C915097982F90950FB75E962C917F
:100430005E97122F127021FD6095F8942081112390
:1004400019F1282B2083E7012197F1F728E0462FA7
:1004500050E0308160FF1AC0382B3083E7012197CC
:10046000F1F7BA0175956795215089F7112381F04D
:100470008081892380830FBF5C968D919C91019729
:10048000F1F781E090E0C1CF2923DCCF3923E5CF1C
:100490009081892BEFCF2091660130916701281759
:1004A000390761F4809165012091640190E0805CDE
:1004B0009F4F821B91098F739927089590E080E0E8
:1004C0000895209166013091670128173907B9F422
:1004D0009091640180916501981789F0E091640121
:1004E000F0E0EC5DFE4F80812091640130E02F5FF1
:1004F0003F4F2F7333272093640190E008958FEFCF
:100500009FEF089590E080E0089587EA80930003CC
:1005100080916A01809301038091690180930203B5
:10052000809168018093030381E192E00E944B0275
:10053000809304038CE58093050308951F920F9226
:100540000FB60F9211242F933F938F939F93AF93E6
:10055000BF938091700190917101A0917201B0914F
:10056000730130916F0123E0230F2D3758F5019669
:10057000A11DB11D20936F018093700190937101B3
:10058000A0937201B093730180916B0190916C0103
:10059000A0916D01B0916E010196A11DB11D8093D6
:1005A0006B0190936C01A0936D01B0936E01BF91AC
:1005B000AF919F918F913F912F910F900FBE0F9010
:1005C0001F90189526E8230F0296A11DB11DD2CFCA
:1005D0001F920F920FB60F9211242F933F934F93B8
:1005E0005F936F937F938F939F93AF93BF93EF939B
:1005F000FF9384E791E00E944701FF91EF91BF9143
:10060000AF919F918F917F916F915F914F913F91AA
:100610002F910F900FBE0F901F9018951F920F9261
:100620000FB60F9211242F938F939F93EF93FF9305
:10063000E0918401F09185018081E0918A01F0913F
:100640008B0182FD1BC0908180918D018F5F8F7324
:1006500020918E01821741F0E0918D01F0E0EC587D
:10066000FE4F958F80938D01FF91EF919F918F9118
:100670002F910F900FBE0F901F9018958081F4CF8F
:100680001F920F920FB60F9211242F933F934F9307
:100690005F936F937F938F939F93AF93BF93EF93EA
:1006A000FF93E0916601F0916701309749F0A685CC
:1006B000B7858585968D91FF14C09C918923A1F4FF
:1006C000FF91EF91BF91AF919F918F917F916F912A
:1006D0005F914F913F912F910F900FBE0F901F9000
:1006E00018959C91892361F7A389B4899C91858988
:1006F000809589238C93868997890197F1F7608D7E
:10070000718DA685B785558538E020E0CB0101972E
:10071000F1F7822F90E095958795282F4C914523EE
:1007200009F02068315091F7868D81FD20958091E8
:10073000650190E001968F73992730916401381715
:1007400099F0A0916501B0E0AC5DBE4F2C93809311
:100750006501828D938D0197F1F7A389B4898C91FE
:100760009589892B8C93ACCF868D8160868FF1CF54
:1007700090E0FC01EE58FF4F2491FC01E255FF4F41
:100780003491FC01E656FF4FE491EE23C9F0222399
:1007900039F0233001F1A8F4213019F1223029F188
:1007A000F0E0EE0FFF1FE057FF4FA591B4918FB718
:1007B000F894EC91611126C030953E233C938FBF95
:1007C00008952730A9F02830C9F0243049F78091E6
:1007D00080008F7D03C0809180008F7780938000A0
:1007E000DFCF84B58F7784BDDBCF84B58F7DFBCF22
:1007F0008091B0008F778093B000D2CF8091B0000D
:100800008F7DF9CF3E2BDACF1092770110927601CF
:1008100088EE93E0A0E0B0E08093780190937901B6
:10082000A0937A01B0937B0124E031E0309375010D
:100830002093740125EC30E03093810120938001F6
:1008400024EC30E0309383012093820120EC30E0EF
:10085000309385012093840121EC30E030938701AF
:100860002093860122EC30E03093890120938801A7
:1008700026EC30E030938B0120938A0110928D0199
:1008800010928E0110928F0110929001109214021A
:10089000109213028093150290931602A0931702F0
:1008A000B093180286E191E09093120280931102B6
:1008B000109228021092270210922A021092290206
:1008C00010922C0210922B0210922E0210922D02E6
:1008D00060912F026E7F6D7F60932F02669561702D
:1008E00081E0682789E00E94B80361E089E00E9406
:1008F0008D00E7EBF0E0E491E0932102E3EAF0E021
:10090000E491F0E0EE0FFF1FE057FF4F85919491C7
:10091000909323028093220260E088E00E948D0081
:1009200080912F0281FD04C061E088E00E94B8033D
:1009300088E080931D02E6EBF0E0E491E0931E0274
:10094000E2EAF0E0E491F0E0EE0FFF1FEA57FF4F1C
:10095000859194919093200280931F02089578943A
:1009600084B5826084BD84B5816084BD85B58260B4
:1009700085BD85B5816085BD80916E008160809365
:100980006E001092810080918100826080938100CE
:1009900080918100816080938100809180008160DE
:1009A000809380008091B10084608093B100809139
:1009B000B00081608093B00080917A008460809361
:1009C0007A0080917A00826080937A0080917A0028
:1009D000816080937A0080917A00806880937A00A9
:1009E0001092C100E0E0F3E01192E03183E0F807FB
:1009F000D9F762E088E00E948D0061E089E00E9402
:100A00008D00E0918401F091850182E08083E09186
:100A10008001F09181011082E0918201F0918301C7
:100A20008FEC808310928C01E0918801F091890114
:100A300086E08083E0918601F0918701808180616A
:100A40008083E0918601F0918701808188608083B6
:100A5000E0918601F0918701808180688083E09138
:100A60008601F091870180818F7D808310922C0216
:100A700010922B0210922A02109229021092280240
:100A8000109227028DE991E090932E0280932D021F
:100A900090911D02963108F047C02DEB30E0309365
:100AA0002802209327022BE931E030932A02209379
:100AB00029022CE231E030932C0220932B0220916A
:100AC000680084E0983048F031E09E3008F430E06F
:100AD00081E001C0880F3A95EAF7822B8093680085
:100AE0002DE630E0983050F02BE630E09E3030F0CC
:100AF0002CE630E0963110F030E020E03093250213
:100B000020932402292F30E0983008F072C081E051
:100B100001C0880F9A95EAF78093260280912D02F2
:100B200090912E020197F1F780912B0290912C0267
:100B3000892B49F1E0916601F091670192E0E13182
:100B4000F90709F1309739F0A389B4899C91858917
:100B5000809589238C9380912F028E7F80932F0222
:100B6000109265011092640181E192E09093670117
:100B700080936601E0912402F0912502808190919A
:100B80002602892B80830E94850200E010E081E12B
:100B900092E00E944B0218161906FCF481E192E0E3
:100BA0000E946102EC0197FD18C080916A018F5F7D
:100BB00080936A01809169018C2780936901C093B9
:100BC00068016C2F81E192E00E94EF016C2F84E7B5
:100BD00091E00E9469010E9485020E948502011530
:100BE0001105A9F20E943301882389F20E940000B6
:100BF000CECF9E3040F42850310981E001C0880FEB
:100C00002A95EAF789CF2E503109F7CF86E191E096
:100C10009093120280931102809166019091670176
:100C20008151924071F4E0912402F091250290816B
:100C3000809126028095892380831092670110920B
:100C400066010895EE0FFF1F0590F491E02D0994C1
:100C500010E0C2E6D0E004C0FE010E942206219608
:0A0C6000C336D107C9F7F894FFCF9F
:100C6A00000000006901C900F600B601270105016C
:100C7A00190100000000EF01C9008202EE014B02D7
:040C8A006102D6012C
:00000001FF
