:100000000C943C000C9459000C9459000C94590029
:100010000C9459000C9459000C9459000C945900FC
:100020000C9459000C9459000C9459000C945900EC
:100030000C9459000C9459000C9459000C945900DC
:100040000C945B000C9459000C9459000C945900CA
:100050000C9459000C9459000C9459000C945900BC
:100060000C9459000C94590031425364758697A83A
:10007000B9CADBECFD0E1F2011241FBECFEFD8E064
:10008000DEBFCDBF11E0A0E0B1E0ECEBF2E002C0DA
:1000900005900D92A430B107D9F721E0A4E0B1E0BA
:1000A00001C01D92A231B207E1F70E94A5000C9495
:1000B0005C010C9400001F920F920FB60F92112456
:1000C0002F933F938F939F93AF93BF9380910E0194
:1000D00090910F01A0911001B091110130910D018B
:1000E00023E0230F2D3758F50196A11DB11D209354
:1000F0000D0180930E0190930F01A0931001B09316
:1001000011018091090190910A01A0910B01B09118
:100110000C010196A11DB11D8093090190930A0164
:10012000A0930B01B0930C01BF91AF919F918F9160
:100130003F912F910F900FBE0F901F90189526E8BA
:10014000230F0296A11DB11DD2CF789484B5826091
:1001500084BD84B5816084BD85B5826085BD85B56B
:10016000816085BD80916E00816080936E001092E9
:100170008100809181008260809381008091810064
:1001800081608093810080918000816080938000F5
:100190008091B10084608093B1008091B000816053
:1001A0008093B00080917A00846080937A0080917F
:1001B0007A00826080937A0080917A0081608093D7
:1001C0007A0080917A00806880937A001092C10052
:1001D00084B1886284B924982C9A17E0C0E0D0E0FA
:1001E0008091050190910601A0910701B09108014D
:1001F0008F70E82FF0E0E859FF4FE49180910501FE
:1002000090910601A0910701B0910801E82788E0CC
:1002100090E020E030E84E2F432309F449C02B9AA8
:100220002D9A220F1C9921602D983695019799F7E8
:10023000809102018E27822798E087FF3BC0880FBC
:1002400081279150D1F78093020180910001909114
:1002500001019E2738E0AC01880F991F57FF04C0A9
:1002600041E2842740E194273150A9F7909301019E
:10027000809300018091040128272093040180913C
:10028000050190910601A0910701B0910801019626
:10029000A11DB11D8093050190930601A093070154
:1002A000B0930801209709F49BCF0E94000098CFDB
:0C02B0002B98B6CF880FC5CFF894FFCF75
:0402BC00FFFF5A00E6
:00000001FF
