:100000000C9434000C9446000C9446000C9446006A
:100010000C9446000C9446000C9446000C94460048
:100020000C9446000C9446000C9446000C94460038
:100030000C9446000C9446000C9446000C94460028
:100040000C9456000C9446000C9446000C94460008
:100050000C9446000C9446000C9446000C94460008
:100060000C9446000C94460011241FBECFEFD8E03C
:10007000DEBFCDBF21E0A0E0B1E001C01D92A930FC
:10008000B207E1F70E94A0000C9410010C9400004C
:1000900080937C0080EC80937A0080917A0086FDCA
:1000A000FCCF809178009091790008951F920F9273
:1000B0000FB60F9211242F933F938F939F93AF937B
:1000C000BF938091050190910601A0910701B09125
:1000D00008013091040123E0230F2D3758F50196D4
:1000E000A11DB11D20930401809305019093060189
:1000F000A0930701B0930801809100019091010144
:10010000A0910201B09103010196A11DB11D809340
:10011000000190930101A0930201B0930301BF91EC
:10012000AF919F918F913F912F910F900FBE0F90A4
:100130001F90189526E8230F0296A11DB11DD2CF5E
:10014000789484B5826084BD84B5816084BD85B5B2
:10015000826085BD85B5816085BD80916E008160BE
:1001600080936E0010928100809181008260809364
:100170008100809181008160809381008091800066
:100180008160809380008091B10084608093B10091
:100190008091B00081608093B00080917A0084608B
:1001A00080937A0080917A00826080937A008091B7
:1001B0007A00816080937A0080917A0080688093D1
:1001C0007A001092C1001092000310920103109265
:1001D000020310920303109204031092050310927D
:1001E00006031092070388EC0E944800D82FC92FFD
:1001F0008EE40E94480027EA20930003D093010375
:10020000C093020380930303909304038CE58093CF
:100210000503C0E0D0E02097F1F30E940000FBCF7F
:04022000F894FFCF80
:00000001FF
