:100000000C9481000C949E000C949E000C949E0015
:100010000C949E000C949E000C949E000C949E00E8
:100020000C949E000C949E000C949E000C949E00D8
:100030000C949E000C949E000C949E000C949E00C8
:100040000C9449010C949E000C949E000C949E000C
:100050000C949E000C949E000C949E000C949E00A8
:100060000C949E000C949E008098B0C6DAEAF6FDCF
:10007000FFFDF6EADAC6B0988068503A26160A0301
:1000800000030A16263A50680300F9FF0C00EEFF41
:100090001900E1FF2A00C9FF3700D6FF1F00E7FF64
:1000A0001200F4FF0700FDFF0000000024002700FD
:1000B0002A0000000000250028002B00000000009E
:1000C000230026002900040404040404040402029A
:1000D00002020202030303030303010204081020C7
:1000E00040800102040810200102040810200000D2
:1000F00000080002010000030407000000000000E7
:10010000000011241FBECFEFD8E0DEBFCDBF11E04D
:10011000A0E0B1E0E4EBF7E002C005900D92A23060
:10012000B107D9F721E0A2E0B1E001C01D92A434EB
:10013000B207E1F70E9493010C94D8030C940000DD
:10014000833081F028F4813099F08230A9F008954D
:100150008730A9F08830C9F08430B1F480918000F4
:100160008F7D03C0809180008F77809380000895F9
:1001700084B58F7784BD089584B58F7DFBCF809142
:10018000B0008F778093B00008958091B0008F7D8C
:10019000F9CFCF93DF93E0EFF0E08491ECEDF0E066
:1001A000D491E8ECF0E0C491CC23A1F081110E943D
:1001B000A000EC2FF0E0EE0FFF1FE454FF4FA591DD
:1001C000B491EC91ED2381E090E009F480E0DF91BF
:1001D000CF91089580E090E0FACF1F93CF93DF9303
:1001E000E1EFF0E09491EDEDF0E0D491E9ECF0E096
:1001F000C491CC23B9F0182F992319F0892F0E94AC
:10020000A000EC2FF0E0EE0FFF1FEE54FF4FA59182
:10021000B4918FB7F894EC91111108C0D095DE23FA
:10022000DC938FBFDF91CF911F910895DE2BF8CF24
:10023000CF93DF9390E0FC01E652FF4F24918A5365
:100240009F4FFC0184918823D1F090E0880F991F83
:10025000FC01E855FF4FA591B491FC01EE54FF4F0E
:10026000C591D49161110EC09FB7F8948C91E22F83
:10027000E0958E238C932881E223E8839FBFDF9152
:10028000CF9108958FB7F894EC91E22BEC938FBF48
:10029000F6CF1F920F920FB60F9211242F933F9318
:1002A0008F939F93AF93BF938091400190914101B1
:1002B000A0914201B091430130913F0123E0230F0F
:1002C0002D3758F50196A11DB11D20933F01809354
:1002D000400190934101A0934201B093430180916A
:1002E0003B0190913C01A0913D01B0913E010196EE
:1002F000A11DB11D80933B0190933C01A0933D0152
:10030000B0933E01BF91AF919F918F913F912F91FB
:100310000F900FBE0F901F90189526E8230F02969E
:10032000A11DB11DD2CF789484B5826084BD84B5FF
:10033000816084BD85B5826085BD85B5816085BDE0
:1003400080916E00816080936E0010928100809198
:100350008100826080938100809181008160809320
:100360008100809180008160809380008091B10045
:1003700084608093B1008091B00081608093B00070
:1003800080917A00846080937A0080917A00826004
:1003900080937A0080917A00816080937A008091C6
:1003A0007A00806880937A001092C100E0E0F3E068
:1003B0001192E83183E0F807D9F760E082E00E940B
:1003C000180161E083E00E941801E8E6F0E0AAE18C
:1003D000B1E084918058990B8D939D93319691E073
:1003E000AA33B907B1F710920A01109209011092CD
:1003F0000C0110920B0110920E0110920D0110923F
:10040000100110920F01109212011092110110921E
:1004100014011092130110921601109215011092FE
:10042000180110921701E0E4E0937C0080917A00BB
:10043000806480937A0080917A0086FDFCCF2090C2
:10044000780030907900E101D2500E94C900892BD8
:1004500009F03EC18FEE9FEF10913A01E12FF0E0DD
:10046000EE0FFF1FE65EFE4FC80FD91FD183C0837A
:1004700048E850E0812C912C5401FA0125913491E7
:10048000E12FF0E0EE0FFF1FE65EFE4FA081B1818D
:100490000E94BA03860E971EA81EB91E115F1F7018
:1004A0004E5F5F4FF0E0483A5F0739F724013501AE
:1004B00065E075946794579447946A95D1F7E091F5
:1004C0001901AE2FA770B0E0AA0FBB1FA75FBE4FE8
:1004D0004D925C92F0E03396E770FF27E201A3E0D3
:1004E000D595C795AA95E1F7EE0FFF1FE75FFE4F81
:1004F000808191818C0F9D1F91838083E9E0F1E0E1
:10050000C12CD12C7601A191B1919D010E94BA0319
:10051000C60ED71EE81EF91E81E0E931F80799F7EB
:100520008E01112761E083E00E9418010115110579
:1005300009F0D1C080E00E94ED0080910701909108
:100540000801280E391E3092080120920701B501DA
:10055000A4014C255D256E257F2580910301909196
:100560000401A0910501B0910601840F951FA61FFB
:10057000B71F8093030190930401A0930501B093EA
:10058000060180910001882589258A258B25880F01
:10059000811D8C258D258E252091190190913A0180
:1005A000E22FE90FEF71F0E0E859FF4FE4918F255A
:1005B000880F811D8E27809300019F5F9F7090930D
:1005C0003A012F5F20931901283108F4CBC08091A4
:1005D00002018111C7C0F7EAF0930003809119016D
:1005E00080930103809107018093020380910801A9
:1005F00080930303809100018093040380910301A1
:10060000809305038091030190910401A09105015D
:10061000B0910601892F9A2FAB2FBB27A7FDBA9562
:10062000809306038091030190910401A09105013C
:10063000B0910601CD01BB2797FDB095AB2F8093FC
:1006400007038091030190910401A0910501B091ED
:1006500006018B2F9927AA27BB2780930803409276
:10066000090350920A03C0920B03CD2CDE2CEF2C11
:10067000FF24E7FCFA94C0920C038091B4008093AD
:100680000D038091B00080930E03809178008093D9
:100690000F0380917900809310038BB18093110335
:1006A0000E94C90021E0892B09F420E02093120365
:1006B00080913A01809313038CE58093140381E0C9
:1006C000809302018091FF02823409F04BC0FFCF7A
:1006D00081E190E0C1CE0F3F110511F481E02BCFF5
:1006E000E1EFF0E08491833019F140F48130B1F012
:1006F0008230C9F0003811058CF71CCF873011F11A
:10070000883041F18430B1F780918000806280931D
:10071000800010938B0000938A000FCF84B580680F
:1007200084BDC7BD0ACF84B5806284BDC8BD05CF76
:1007300080918000806880938000109389000093EE
:100740008800FBCE8091B00080688093B000C09399
:10075000B300F3CE8091B00080628093B000C0936C
:10076000B400EBCEE0E0F0E0EF2B09F45CCE0E94A9
:10077000000059CE0E94C203332312F48A1B9B0B44
:100780000C94D303A29FB001B39FC001A39F700D2F
:10079000811D1124911DB29F700D811D1124911D89
:1007A00008950E94C203B7FF0895821B930B08951A
:0407B000F894FFCFEB
:0207B400A5009E
:00000001FF
