:100000000C946B000C9493000C9493000C9493004C
:100010000C9493000C9493000C9493000C94930014
:100020000C9493000C9493000C9493000C94930004
:100030000C9493000C9493000C9493000C949300F4
:100040000C94A6020C9493000C9416030C94F002EA
:100050000C9493000C9493000C9493000C949300D4
:100060000C9493000C9493000000000025002800DD
:100070002B0000000000240027002A006D73672079
:10008000003A4C4F3A003A48493A00530000000009
:1000900000230026002900040404040404040402CC
:1000A0000202020202030303030303010204081015
:1000B00020408001020408102001020408102000E2
:1000C0000000080002010000030407000000000017
:1000D00000000000B60711241FBECFEFD8E0DEBF3E
:1000E000CDBF21E0A4E3B1E001C01D92A53EB2075F
:1000F000E1F711E0A0E0B1E0E0E1FBE102C0059032
:100100000D92A433B107D9F710E0CBE6D0E004C0DC
:100110002197FE010E94B408CA36D107C9F70E9490
:1001200048030C94860D0C940000E1ECF0E08491FF
:10013000EDEAF0E09491E9E9F0E0E491EE23C1F119
:10014000882339F08330E9F090F4813001F1823076
:1001500011F1F0E0EE0FFF1FE357FF4FA591B491AF
:10016000EC91E92381E090E029F580E00895873063
:10017000A9F08830C9F0843061F7809180008F7DCC
:1001800003C0809180008F7780938000E2CF84B598
:100190008F7784BDDECF84B58F7DFBCF8091B0009B
:1001A0008F778093B000D5CF8091B0008F7DF9CF4D
:1001B00080E090E00895AF92BF92CF92DF92EF92ED
:1001C000FF920F931F93CF93DF936C017B018B0101
:1001D000040F151FEB015E01AE18BF08C017D10751
:1001E00059F06991D601ED91FC910190F081E02DDB
:1001F000C6010995892B79F7C501DF91CF911F9130
:100200000F91FF90EF90DF90CF90BF90AF90089547
:10021000FC01538D448D252F30E0842F90E0821B0C
:10022000930B541710F0CF96089501970895FC0191
:10023000918D828D981761F0A28DAE0FBF2FB11DE9
:100240005D968C91928D9F5F9F73928F90E0089541
:100250008FEF9FEF0895FC01918D828D981731F0FB
:10026000828DE80FF11D858D90E008958FEF9FEF4F
:100270000895FC01918D228D892F90E0805C9F4F25
:10028000821B91098F739927089584E491E00E945D
:10029000390121E0892B09F420E0822F089580E0C4
:1002A00090E0892B29F00E94450181110C940000F7
:1002B0000895FC01A48DA80FB92FB11DA35ABF4FFB
:1002C0002C91848D90E001968F739927848FA68955
:1002D000B7892C93A089B1898C91837080648C93A9
:1002E000938D848D981306C00288F389E02D808158
:1002F0008F7D80830895EF92FF920F931F93CF938A
:10030000DF93EC0181E0888F9B8D8C8D98131AC050
:10031000E889F989808185FF15C09FB7F894EE8937
:10032000FF896083E889F989808183708064808394
:100330009FBF81E090E0DF91CF911F910F91FF90DF
:10034000EF900895F62E0B8D10E00F5F1F4F0F7387
:100350001127E02E8C8D8E110CC00FB607FCFACF42
:10036000E889F989808185FFF5CFCE010E94590186
:10037000F1CFEB8DEC0FFD2FF11DE35AFF4FF08213
:100380009FB7F8940B8FEA89FB8980818062CFCF79
:10039000CF93DF93EC01888D8823B9F0AA89BB89BC
:1003A000E889F9898C9185FD03C0808186FD0DC0A7
:1003B0000FB607FCF7CF8C9185FFF2CF808185FFC8
:1003C000EDCFCE010E945901E9CFDF91CF91089581
:1003D000FC018AE59191992381F0482F50E09A0120
:1003E00083E0220F331F8A95E1F755954795559580
:1003F00047952427822F8927EDCF0895FC0101908E
:100400000020E9F73197AF01481B590BBC0184E488
:1004100091E00C94DB000F931F93CF93DF93EC01DB
:1004200088819981009759F02A813B8126173707E7
:1004300030F081E0DF91CF911F910F9108958B01F2
:100440006F5F7F4F0E94DF09009759F0998388837F
:100450001B830A832C813D81232B59F7FC011082D9
:10046000E8CF80E0E7CFCF93DF93EC0188819981DB
:10047000009711F00E945609198218821D821C8271
:100480001B821A82DF91CF910895EF92FF920F9312
:100490001F93CF93DF93EC017B018A01BA010E9485
:1004A0000B0281110BC0CE010E943302CE01DF91FD
:1004B000CF911F910F91FF90EF9008951D830C83B2
:1004C000B701888199810E94B70AF0CFEF92FF921D
:1004D0000F931F93CF93DF93CDB7DEB761970FB61E
:1004E000F894DEBF0FBECDBF8C01CB01F8011182A5
:1004F000108213821282158214824AE09E012F5FBD
:100500003F4F7901B9010E943108F70101900020A5
:10051000E9F73197AF014E195F09B701C8010E9491
:10052000450261960FB6F894DEBF0FBECDBFDF91D6
:10053000CF911F910F91FF90EF900895FC01808162
:100540009181009711F00C94560908951F920F9213
:100550000FB60F9211242F933F938F939F93AF93D6
:10056000BF938091400190914101A0914201B091CF
:10057000430130913F0123E0230F2D3758F50196B9
:10058000A11DB11D20933F01809340019093410133
:10059000A0934201B093430180913B0190913C01B3
:1005A000A0913D01B0913E010196A11DB11D809326
:1005B0003B0190933C01A0933D01B0933E01BF915C
:1005C000AF919F918F913F912F910F900FBE0F9000
:1005D0001F90189526E8230F0296A11DB11DD2CFBA
:1005E0001F920F920FB60F9211242F933F934F93A8
:1005F0005F936F937F938F939F93AF93BF93EF938B
:10060000FF9384E491E00E945901FF91EF91BF9123
:10061000AF919F918F917F916F915F914F913F919A
:100620002F910F900FBE0F901F9018951F920F9251
:100630000FB60F9211242F938F939F93EF93FF93F5
:10064000E0915401F09155018081E0915A01F091BF
:100650005B0182FD1BC0908180915D018F5F8F7374
:1006600020915E01821741F0E0915D01F0E0EC5BCA
:10067000FE4F958F80935D01FF91EF919F918F9138
:100680002F910F900FBE0F901F9018958081F4CF7F
:10069000CF93DF93CDB7DEB7C455D1090FB6F89429
:1006A000DEBF0FBECDBF789484B5826084BD84B5B3
:1006B000816084BD85B5826085BD85B5816085BD5D
:1006C00080916E00816080936E0010928100809115
:1006D000810082608093810080918100816080939D
:1006E0008100809180008160809380008091B100C2
:1006F00084608093B1008091B00081608093B000ED
:1007000080917A00846080937A0080917A00826080
:1007100080937A0080917A00816080937A00809142
:100720007A00806880937A001092C100E0E0F3E0E4
:100730001192E83123E0F207D9F7EDEAF0E02491D5
:10074000E9E9F0E084918823C9F090E0880F991FCF
:10075000FC01EE58FF4F45915491FC01E859FF4FC1
:10076000A591B4919FB7F894FA01808120958223D6
:1007700080838C91E22FE823EC939FBFE09154019A
:10078000F091550182E08083E0915001F091510198
:100790001082E0915201F091530180E18083109228
:1007A0005C01E0915801F091590186E08083E0916D
:1007B0005601F0915701808180618083E09156015C
:1007C000F0915701808188608083E0915601F0911B
:1007D0005701808180688083E0915601F091570134
:1007E00080818F7D80832E01F2E44F0E511C3E01EB
:1007F00022E2620E711C80E480937C0080917A007A
:10080000806480937A0080917A0086FDFCCF80918D
:1008100078009091790060969FAF8EAF60970E94AC
:100820009500892B09F466C091E061969FAF6197AE
:1008300096E8E92E90E0F92E10913A011BA21AA237
:100840001DA21CA21FA21EA261E070E0C3010E94B3
:100850000B02811157C0C3010E9433021A82198210
:100860001C821B821E821D826AA17BA161157105FB
:1008700031F04EA15FA1CE0101960E9445024AE0EF
:10088000B201812F90E00E941108F2010190002036
:10089000E9F73197E419F509B1F00D811E810E0FCA
:1008A0001F1FB801CE0101960E940B028823A9F1F7
:1008B00029813A818D819E81B201820F931F0E940E
:1008C000B70A1E830D830D811E810C5F1F4FB80177
:1008D000CE0101960E940B02882321F129813A81E1
:1008E0008D819E81B701820F931F0E940A081E838B
:1008F0000D831CC061961FAE619781E8E82E80E0F1
:10090000F82E9ACF81E090E09FA38EA36BE870E071
:100910008AA19BA10E940A08A1CFCE0101960E9444
:100920003302D1CFCE0101960E9433022A961FAE28
:100930001EAE2A972C961FAE1EAE2C972E961FAE7B
:100940001EAE2E9769817A816115710539F04D814E
:100950005E81CE01885B9F4F0E944502CE010196C9
:100960000E949E02C3010E949E0260966EAD7FAD02
:100970006097CE0101960E946602E980FA80E11438
:10098000F10421F10D811E8101151105F9F02E965A
:100990008EAD9FAD2E97080F191FB801CE01885B51
:1009A0009F4F0E940B02882389F02A962EAD3FADFF
:1009B0002A972E968EAD9FAD2E97B701820F931F6B
:1009C0000E94B70A2E961FAF0EAF2E97CE0101964A
:1009D0000E949E021A8219821C821B821E821D8224
:1009E00041E050E06EE171E0CE0101960E944502C7
:1009F0001BA21AA21DA21CA21FA21EA241E050E02F
:100A000060E271E0C3010E9445022E96CEACDFACDD
:100A10002E97C114D10409F467C0AEA0BFA0A114E1
:100A2000B10409F461C02D803E802A183B082A9643
:100A30000EAD1FAD2A9721143104A1F46AA17BA148
:100A4000C8010E94BE0A8C01009709F44DC069815B
:100A50007A814D815E810E949C0A8D819E81080F62
:100A6000191FECCF37FC0FC08AA09BA07601C801EC
:100A7000B4010E94BE0A009709F4BCC18A0D9B1DF7
:100A8000E20CF31CF5CF78016AA17BA1C8010E949A
:100A9000BE0A5C01009721F16C01C01AD10AA601BF
:100AA000B801C7010E949C0AEC0CFD1C69817A8187
:100AB0004D815E81C7010E949C0A8D819E81E80E56
:100AC000F91E0EA11FA10A0D1B1D2E968EAD9FAD06
:100AD0002E97820D931D2E969FAF8EAF2E97D4CF5B
:100AE000B801C7010E94B70AC3010E949E02CE014D
:100AF00001960E949E022E960EAD1FAD2E97D12C10
:100B0000C12C0730110540F06801F6E0CF1AD1087A
:100B10000C151D0508F407C2F20111821082138220
:100B200012821582148250E040E062E371E0C2015B
:100B30000E9445022E96EEACFFAC2E97CE14DF0439
:100B400048F50E151F0508F478012A96EEADFFADA5
:100B50002A97EE0DFF1D108110822A966EAD7FAD93
:100B60002A976C0D7D1D6115710509F4E2C1FB0129
:100B700001900020E9F73197AF01461B570BC201E6
:100B80000E9445022A968EAD9FAD2A97E80EF91E67
:100B9000F70110836196FFAD619788E191E0F11153
:100BA00002C08BE191E09F938F9360962FAD609789
:100BB0002F932F963FAD2F973F9380913A011F922D
:100BC0008F9382E291E09F938F931F9280E28F93A5
:100BD0007F926F920E94D80A2A968EAD9FAD2A9777
:100BE0000E94E801182F00913901F2018081918162
:100BF0000E94E80118271027C3010E94E8018127FD
:100C00008093390160966EAD7FAD6097CE010196FD
:100C10000E94660289819A810FB6F894DEBF0FBEEA
:100C2000CDBF60E0009711F00E94E3072D968FADD5
:100C30002D97F2019481890F680F80913801682700
:100C400060933801CE0101960E949E02F30101904B
:100C50000020E9F73197E619F7092D968FAD2D970A
:100C60008E27E0913701E80FE0933701809135013D
:100C70009091360160962EAD3FAD6097820F931F25
:100C800090933601809335010CE710E0F8016491F0
:100C9000662341F084E491E00E947B010F5F1F4FC7
:100CA000892BA1F720913A0130E050E040E019A2F1
:100CB0008E010F5D1F4FCA01B9012AE030E040E00C
:100CC00050E00E949208605DF80162938F01211547
:100CD00031054105510579F7309719F0CF010E9490
:100CE000FE0160E284E491E00E947B012E964EAD0D
:100CF0005FAD2E972A966EAD7FAD2A9784E491E082
:100D00000E94DB0060E284E491E00E947B01C30169
:100D10000E94FE0180E391E00E94FE0180913A0171
:100D20008F5F80933A01883008F407C180913401C5
:100D3000811103C187EA8093000380913A01809377
:100D400001038091350180930203809136018093E5
:100D500003038091390180930403809138018093CB
:100D6000050380913701809306036196FFAD61977B
:100D7000F09307032D968FAD2D9780930803F20112
:100D8000848180930903F30101900020E9F73197F2
:100D9000E619F709E0930A038AA180930B038BA15C
:100DA00080930C0381E080930D0380917800809301
:100DB0000E038091790080930F038BB18093100311
:100DC00089B1809311038AB1809312030E94950028
:100DD00021E0892B09F420E0209313038CE5809314
:100DE000140381E0809334018091FF02823409F082
:100DF000A4C0FFCFCE14DF0409F476CE2C968EADBE
:100E00009FAD2C978E159F0588F4B7016F5F7F4FBC
:100E1000C8010E94DF09009709F466CE2A969FAFA9
:100E20008EAF2A972C96FFAEEEAE2C972E960EAD77
:100E30001FAD2E970150110917FD56CE68018EA0E7
:100E40009FA08114910409F44FCE2E96EEACFFAC16
:100E50002E97E114F10409F447CEE814F90408F4DC
:100E600043CE0E151F0520F06701E1E0CE1AD10830
:100E70002A96AEACBFAC2A972AA13BA163963FAF9E
:100E80002EAF6397C5010FEF1FEFF501EC0DFD1DB0
:100E90006596FFAFEEAF659765962EAD3FAD659752
:100EA0002817390790F063966EAD7FAD63970E9467
:100EB000BE0A009751F09C012A193B09C216D306BD
:100EC00008F4980101968901E7CF17FD0DCE800E39
:100ED000911EC501880D991DA70148195909BC012A
:100EE000820D931D0E94A50A2E968EAD9FAD2E9762
:100EF000820D931D2E969FAF8EAF2E972A962EAD04
:100F00003FAD2A97820F931FFC0110822A968EAD67
:100F10009FAD2A9769817A814D815E81800F911FF3
:100F20000E949C0A87CF9C2D8D2D6801092F182FB8
:100F3000F3CDC2010E94330225CE83E790E00197F2
:100F4000F1F7C2010E949E02CE01885B9F4F0E9472
:100F50009E0280E090E0892B09F44DCC0E9445016F
:100F6000882309F444CC0E94000041CCE4E4F1E081
:100F70001382128288EE93E0A0E0B0E08483958330
:100F8000A683B7838AE091E09183808385EC90E02B
:100F90009587848784EC90E09787868780EC90E043
:100FA000918B808B81EC90E0938B828B82EC90E034
:100FB000958B848B86EC90E0978B868B118E128EAE
:100FC000138E148E08951F93FC0199278827BC0166
:100FD000E89411911032E9F3193010F01E30C8F383
:100FE0001B3251F01D3249F4689406C00E941C085F
:100FF000610F711D811D911D119110531A30B0F3B5
:101000003EF490958095709561957F4F8F4F9F4FDF
:101010001F910895FB01DC0105900D920020E1F77E
:101020000895BB274A3031F4992322F4BDE290950C
:1010300081959F4F0C943208592F482F372F262F18
:10104000660F771F881F991F660F771F881F991FCC
:10105000620F731F841F951F660F771F881F991FCC
:101060000895BB27FB015527AA27880F991FAA1FA0
:10107000A41710F0A41B83955051B9F7A05DAA33B3
:1010800008F0A95DA193009779F7B111B19311927E
:10109000CB010C944B08DC01FC01672F7191772385
:1010A000E1F7329704C07C916D9370836291AE1723
:1010B000BF07C8F308952F923F924F925F926F92AD
:1010C0007F928F929F92AF92BF92CF92DF92EF92D8
:1010D000FF920F931F93CF93DF93CDB7DEB7CA1B59
:1010E000DB0B0FB6F894DEBF0FBECDBF09942A8884
:1010F000398848885F846E847D848C849B84AA842C
:10110000B984C884DF80EE80FD800C811B81AA81B8
:10111000B981CE0FD11D0FB6F894DEBF0FBECDBF83
:10112000ED010895A1E21A2EAA1BBB1BFD010DC003
:10113000AA1FBB1FEE1FFF1FA217B307E407F50787
:1011400020F0A21BB30BE40BF50B661F771F881F63
:10115000991F1A9469F760957095809590959B01F9
:10116000AC01BD01CF010895EE0FFF1F0590F49172
:10117000E02D09940F931F93CF93DF938230910555
:1011800010F482E090E0E091E301F091E40130E0BE
:1011900020E0B0E0A0E0309799F42115310509F482
:1011A0004AC0281B390B24303105D8F58A819B8130
:1011B0006115710589F1FB0193838283FE0111C0E2
:1011C000408151810281138148175907E0F0481787
:1011D000590799F4109761F012960C931297139691
:1011E0001C933296CF01DF91CF911F910F910895FB
:1011F0000093E3011093E401F4CF2115310551F080
:101200004217530738F0A901DB019A01BD01DF0144
:10121000F801C1CFEF01F9CF9093E4018093E3018E
:10122000CDCFFE01E20FF31F81939193225031093C
:1012300039832883D7CF2091E1013091E201232B1C
:1012400041F420910201309103013093E201209397
:10125000E10120910001309101012115310541F496
:101260002DB73EB74091040150910501241B350B69
:10127000E091E101F091E201E217F307A0F42E1BE7
:101280003F0B2817390778F0AC014E5F5F4F2417EA
:10129000350748F04E0F5F1F5093E2014093E10184
:1012A000819391939FCFF0E0E0E09CCFCF93DF93C9
:1012B0000097E9F0FC01329713821282A091E301BA
:1012C000B091E401ED0130E020E01097A1F420811D
:1012D0003181820F931F2091E1013091E2012817A3
:1012E000390709F061C0F093E201E093E101DF9179
:1012F000CF910895EA01CE17DF07E8F54A815B81B7
:101300009E0141155105B1F7E901FB83EA8349913B
:101310005991C40FD51FEC17FD0761F480819181AD
:101320000296840F951FE9019983888382819381B6
:101330009B838A83F0E0E0E012968D919C91139755
:101340000097B9F52D913C911197CD010296820F2E
:10135000931F2091E1013091E2012817390739F6F6
:10136000309751F51092E4011092E301B093E2013D
:10137000A093E101BCCFD383C28340815181840F0C
:10138000951FC817D90761F44E5F5F4F8881998117
:10139000480F591F518340838A819B8193838283A5
:1013A0002115310509F0B0CFF093E401E093E3019A
:1013B0009ECFFD01DC01C0CF13821282D7CFB0E0F7
:1013C000A0E0E5EEF9E00C945D088C01009751F483
:1013D000CB010E94BA088C01C801CDB7DEB7E0E1AD
:1013E0000C947908FC01E60FF71F9C01225031098B
:1013F000E217F30708F49DC0D901CD91DC91119754
:10140000C617D70798F0C530D10530F3CE01049741
:101410008617970708F3C61BD70B2297C193D19362
:101420006D937C93CF010E945609D6CF5B01AC1A15
:10143000BD0A4C018C0E9D1EA091E301B091E40108
:10144000512C412CF12CE12C109731F58091E101C8
:101450009091E2018815990509F05CC0461657067F
:1014600008F058C08091000190910101009741F46B
:101470008DB79EB74091040150910501841B950BD7
:10148000E817F90708F055C0F093E201E093E10195
:10149000F90171836083A0CF8D919C911197129671
:1014A0006C90129713967C901397A815B90559F56F
:1014B0006C0142E0C40ED11CCA14DB0420F1AC0163
:1014C0004A195B09DA011296159780F062827382DD
:1014D00051834083D9016D937C93E114F10471F041
:1014E000D7011396FC93EE93129776CF22968C0F2A
:1014F0009D1FF90191838083F301EFCFF093E40105
:10150000E093E30169CF4816590608F42C017D01E8
:10151000D3019ACFCB010E94BA087C01009749F011
:10152000AE01B8010E949C0AC8010E9456098701B9
:1015300053CF10E000E050CFFB01DC0102C001906E
:101540000D9241505040D8F708956817790768F414
:10155000FB01DC01E40FF51FA40FB51F02C00290D0
:101560000E9241505040D8F708950C949C0AFB010C
:10157000DC0101900D920020E1F70895FB015191EB
:101580005523A9F0BF01DC014D9145174111E1F749
:1015900059F4CD010190002049F04D9140154111C1
:1015A000C9F3FB014111EFCF81E090E0019708956D
:1015B000AEE0B0E0EEEDFAE00C9469080D891E890A
:1015C0008F89988D26E02C831A83098397FF02C0A8
:1015D00080E090E801979E838D83AE01455E5F4F6A
:1015E000698D7A8DCE0101960E94080B4D815E8136
:1015F00057FD0AC02F813885421753070CF49A0112
:10160000020F131FF80110822E96E4E00C94850857
:10161000ABE0B0E0EEE0FBE00C945B087C013B014A
:101620008A01FC0117821682838181FFC8C1CE0125
:1016300001965C01F7019381F30193FD859193FF7E
:1016400081913F01882309F453C1853239F493FD18
:10165000859193FF81913F01853229F4B70190E094
:101660000E94F80CE7CF912C212C312CFFE1F315CF
:1016700038F08B3211F190F4803209F1833229F184
:1016800037FC3CC020ED280F2A3050F536FE20C034
:101690008AE0989E200D1124922E06C08D3291F082
:1016A000803371F7689430F8F30193FD859193FFCF
:1016B00081913F018111DACF21C0689431F868949B
:1016C00032F8F2CF689433F8EFCF689434F8ECCF67
:1016D000EAE02E9E200D1124222E689435F8E4CFE6
:1016E0008E3229F436FC04C1689436F8DDCF8C368E
:1016F00019F4689437F8D8CF8836B1F2982F9F7DC7
:1017000095549330E0F08336A1F18337C1F18335EE
:1017100009F063C02801F2E04F0E511CF801C080AF
:10172000D180692D70E036FC02C06FEF7FEFC601FB
:101730000E94E20C4C01689437F882010AC00C5FE9
:101740001F4FFFE3F98388248394912C6501E8946B
:1017500037F833FE2DC0522C8114910471F55520B9
:1017600009F468CFB70180E290E00E94F80C5A9427
:10177000F6CFF801808189830E5F1F4FE4CF2801E7
:10178000F2E04F0E511CF801C080D180692D70E04D
:1017900036FC02C06FEF7FEFC6010E94ED0C4C01DA
:1017A0008201D5CFB70180E290E00E94F80C2A9424
:1017B0002814190409F0B0F7CECFF60137FC859153
:1017C00037FE81916F01B70190E00E94F80C511033
:1017D0005A94F1E08F1A9108BFCF843619F08936F8
:1017E00009F077C0F80137FE6BC06081718182819A
:1017F00093810C5F1F4FF32DFF763F2E97FF09C09B
:1018000090958095709561957F4F8F4F9F4F68940D
:1018100037F82AE030E0A5010E94280DC82ECA182A
:101820008C2C432C36FE0CC0E89440F8C91440F4CC
:1018300034FE05C032FC03C0F32DFE7E4F2E892CF2
:1018400044FE95C0FE01EC0DF11D8081803309F04E
:1018500087C0242D297E422E842D8870582E43FC6B
:1018600095C040FE8FC09C2C821418F42C0C922C36
:10187000981844FE91C0B70180E390E00E94F80CF4
:1018800042FE09C088E790E041FE02C088E590E092
:10189000B7010E94F80CC91408F48AC0CA94D12C6C
:1018A0009FEFC91AD90ACA0CDB1CF60182916F019D
:1018B000B70190E00E94F80CAC14BD04B1F74FCF13
:1018C00060817181072E000C880B990B0E5F1F4FF2
:1018D00092CFD32CE894D4F82AE030E0853739F160
:1018E000232D297FD22E8F3601F148F48835A9F0B7
:1018F000F701868197812B96E2E10C947708803777
:1019000049F08837A9F7D4FE02C06894D2F820E1E4
:1019100030E00DC06894D4F8F6CF34FE03C0822FB7
:101920008660D82E20E132E002C028E030E0F801E5
:10193000D7FE0FC060817181828193810C5F1F4F40
:10194000A5010E94280DC82ECA183D2CE89437F82E
:1019500067CF6081718190E080E00E5F1F4FF0CF14
:1019600042FC02C0839478CF8394839475CF842DF6
:10197000867809F471CFF6CFB70180E290E00E943B
:10198000F80C83948214C0F3512C73CF522C581846
:10199000821408F46ECFF8CF842D867809F47BCFBB
:1019A0008BE241FE80E247FC8DE2B70190E071CF0F
:1019B000B70180E390E00E94F80C9A946CCF8FEF0F
:1019C0009FEF99CFFC010590615070400110D8F74E
:1019D000809590958E0F9F1F0895FC016150704077
:1019E00001900110D8F7809590958E0F9F1F089554
:1019F0000F931F93CF93DF93182F092FEB018B8148
:101A000081FD09C01FEF0FEF812F902FDF91CF9144
:101A10001F910F91089582FF14C02E813F818C8108
:101A20009D81281739073CF4E881F981CF0101969F
:101A30009983888310838E819F8101969F838E83F3
:101A4000E3CFE885F985812F0995892BA1F3DACFBA
:101A5000FA01AA27283051F1203181F1E8946F93DF
:101A60006E7F6E5F7F4F8F4F9F4FAF4FB1E03ED085
:101A7000B4E03CD0670F781F891F9A1FA11D680F23
:101A8000791F8A1F911DA11D6A0F711D811D911D56
:101A9000A11D20D009F468943F912AE0269F1124CB
:101AA0003019305D3193DEF6CF010895462F47702F
:101AB000405D4193B3E00FD0C9F7F6CF462F4F708A
:101AC000405D4A3318F0495D31FD4052419302D0E8
:101AD000A9F7EACFB4E0A69597958795779567958E
:101AE000BA95C9F700976105710508959B01AC018E
:101AF0000A2E06945795479537952795BA95C9F7B5
:101B0000620F731F841F951FA01D0895F894FFCFC7
:101B10000000E5018000000000007B01DB000801FF
:101B2000C801390117012B01757000646E002D008A
:101B30003A0072253032752F253034752F25730009
:041B40000D0A00008A
:00000001FF
