:100000000C9434000C943E000C943E000C943E0082
:100010000C943E000C943E000C943E000C943E0068
:100020000C943E000C943E000C943E000C943E0058
:100030000C943E000C943E000C943E000C943E0048
:100040000C943E000C943E000C943E000C943E0038
:100050000C943E000C943E000C943E000C943E0028
:100060000C943E000C943E0011241FBECFEFD8E04C
:10007000DEBFCDBF0E9471000C948F010C94000074
:1000800010928000E1E8F0E010821092850010925A
:10009000840081E080830895CF93DF9300D00F9296
:1000A000CDB7DEB789836A837B830E944000898154
:1000B00084688093BC008091BC0087FFFCCF809156
:1000C000B900887FEA81FB818083809184009091D0
:1000D0008500109281000F900F900F90DF91CF91CB
:1000E00008950F92CDB7DEB7E0E0F3E01192E83269
:1000F00023E0F207D9F787EA809300031092C50046
:100100001092C40080E48093C00088E08093C10016
:1001100086E08093C2000E94400085E58093C6007F
:100120008091C00086FFFCCF809184009091850073
:10013000109281008093010390930203229A80E53C
:100140008CBD1DBC0E9440008CE38EBD0DB407FE2B
:10015000FDCF8091840090918500109281003EB582
:100160002DB58093030390930403309305032093EC
:1001700006031092B9001092B80084E08093BC008E
:100180001982BE016F5F7F4F80E20E944C00809316
:1001900007039093080389818093090380EA809381
:1001A000BB00BE016F5F7F4F80E00E944C008093D8
:1001B0000A0390930B03898180930C038BEA80934D
:1001C000BB00BE016F5F7F4F80E00E944C008093B8
:1001D0000D0390930E03898180930F03BE016F5F1F
:1001E0007F4F80E20E944C00809310039093110394
:1001F00089818093120381EA8093BB00BE016F5F07
:100200007F4F80E00E944C0080931303909314036F
:10021000898180931503BE016F5F7F4F80E00E944C
:100220004C008093160390931703898180931803E1
:100230008091BB00809319030E94400084E9809361
:10024000BC008091BC0084FDFCCF80918400909123
:100250008500109281002091BC0080931A03909336
:100260001B0320931C031092C5001092C40010922F
:10027000C00080E18093C10086E08093C2000E94AC
:10028000400081E7809327038091C00087FFFCCF67
:100290008091840090918500109281002091C0008F
:1002A0003091C60080931D0390931E0330931F036B
:1002B000209320031092C1001092C00080E180932F
:1002C000C1000E94400082E7809327038091C00014
:1002D00083FD07C08091840090918500883E934003
:1002E000A8F3809184009091850010928100509134
:1002F000C0004091C6003091C6002091C00080939C
:1003000021039093220350932303409324033093BB
:100310002503209326038CE580932703FFCFF894D1
:02032000FFCF0D
:00000001FF
