:100000000C9434000C9440000C943E000C9450006E
:100010000C943E000C943E000C943E000C943E0068
:100020000C943E000C943E000C943E000C943E0058
:100030000C943E000C943E000C943E000C943E0048
:100040000C943E000C943E000C943E000C943E0038
:100050000C943E000C943E000C943E000C943E0028
:100060000C943E000C943E0011241FBECFEFD8E04C
:10007000DEBFCDBF0E9460000C9488000C9400008D
:100080008F938FB78F93EF93FF93E1E0F3E080813D
:100090008F5F8083FF91EF918F918FBF8F91189524
:1000A0008F938FB78F93EF93FF93E2E0F3E080811C
:1000B0008F5F8083FF91EF918F918FBF8F91189504
:1000C0001092000310920103109202031092030396
:1000D00083E08093690081E08CBB8DBB80936B00D3
:1000E0008BBB8093680083B7817F846083BF83B7B5
:1000F000816083BF87EA809300037894889583B7F3
:100100008E7F83BFF8948CE5809303030000FECFBD
:04011000F894FFCF91
:00000001FF
