:100000000C9434000C943E000C943E000C943E0082
:100010000C943E000C943E000C943E000C943E0068
:100020000C943E000C943E000C943E000C943E0058
:100030000C943E000C943E000C943E000C943E0048
:100040000C943E000C943E000C943E000C943E0038
:100050000C943E000C943E000C943E000C943E0028
:100060000C943E000C943E0011241FBECFEFD8E04C
:10007000DEBFCDBF0E9440000C947F000C940000B6
:10008000E0E0F3E01192E03183E0F807D9F787EA86
:100090008093000322982A9880E48CBD1DBC85EAD9
:1000A0008EBD1092800010928100109285001092F7
:1000B000840081E08093810081E580930E030DB47C
:1000C00007FEFDCF80918400909185001092810001
:1000D0003DB54EB52DB58093010390930203409337
:1000E000030330930403209305038CB58093060328
:1000F0008EB5809307038CE580930F03FFCFF894B0
:02010000FFCF2F
:00000001FF
