:100000000C9434000C9446000C9446000C9446006A
:100010000C9446000C9446000C9446000C94460048
:100020000C9446000C9446000C9446000C94460038
:100030000C9446000C9446000C9446000C94460028
:100040000C946D000C9446000C9446000C94110125
:100050000C94FF000C94B7000C9446000C944600DE
:100060000C9446000C94460011241FBECFEFD8E03C
:10007000DEBFCDBF21E0A0E0B1E001C01D92A33101
:10008000B207E1F70E9443010C945B020C9400005C
:1000900081E090E0909305018093040110920301A8
:1000A00010920201109209011092080110920701AA
:1000B00010920601109201011092000180E48093D9
:1000C000C000E1ECF0E088E080831092C60088E296
:1000D00080838FEC80937A0008951F920F920FB661
:1000E0000F9211242F933F938F939F93AF93BF93BE
:1000F00080910F0190911001A0911101B091120116
:1001000030910E0123E0230F2D3758F50196A11DE4
:10011000B11D20930E0180930F0190931001A093C5
:100120001101B093120180910A0190910B01A091ED
:100130000C01B0910D010196A11DB11D80930A0122
:1001400090930B01A0930C01B0930D01BF91AF915F
:100150009F918F913F912F910F900FBE0F901F9005
:10016000189526E8230F0296A11DB11DD2CF1F922C
:100170000F920FB60F9211242F933F938F939F935B
:100180002091780030917900309301012093000193
:100190008091060190910701820F931F90930701B0
:1001A00080930601809108018F5F80930801809100
:1001B00008013695279536952795822790E09093EC
:1001C0008900809388002FEF30E0281B390B309393
:1001D0008B0020938A0080910801803270F4809116
:1001E0007A00806480937A009F918F913F912F9144
:1001F0000F900FBE0F901F90189587E0F3CF1F92BE
:100200000F920FB60F9211248F9381E08093090112
:1002100088E08093C1008F910F900FBE0F901F90C8
:1002200018951F920F920FB60F9211242F933F93A0
:100230008F939F9380910401909105018093C60054
:100240002091020130910301820F932F911D909311
:1002500003018093020180910401909105010196B0
:1002600090930501809304018115924019F488E46C
:100270008093C1009F918F913F912F910F900FBE5E
:100280000F901F901895789484B5826084BD84B5D2
:10029000816084BD85B5826085BD85B5816085BD81
:1002A00080916E00816080936E0010928100809139
:1002B00081008260809381008091810081608093C1
:1002C0008100809180008160809380008091B100E6
:1002D00084608093B1008091B00081608093B00011
:1002E00080917A00846080937A0080917A008260A5
:1002F00080937A0080917A00816080937A00809167
:100300007A00806880937A001092C100F894E0E04F
:10031000F3E01192E53183E0F807D9F71092160364
:100320001092150310926E0015BC1092B10086E079
:1003300084B915B892E09AB91BB891EA90938000FD
:1003400099E090938100109285001092840020E43F
:1003500030E030938900209388002FEB30E0309319
:100360008B0020938A001092C5001092C4008093E5
:10037000C20080E480937C0010927B0081E0809337
:100380007E0083B7817F83BF0E9448007894C0E0DD
:10039000D0E0F894809109018823A9F080910801A8
:1003A000803289F480911503909116030196909301
:1003B0001603809315038091FF02823489F00E9416
:1003C0004800789408C083B7816083BF789488958B
:1003D00083B78E7F83BF2097E1F20E940000D9CFC0
:1003E0001092810081E08093800015B887EA8093A5
:1003F0000003809108018093010380910601909190
:100400000701809302038091060190910701909368
:10041000030380910401909105018093040380916E
:100420000401909105019093050380910901809347
:10043000060380910201909103018093070380914C
:100440000201909103019093080380910001909123
:100450000101809309038091000190910101909323
:100460000A038091880080930B0380918A00809317
:100470000C038091800080930D0380918100809314
:100480000E038091C10080930F0380917A008093C6
:1004900010038091780080931103809179008093FC
:1004A000120389B182FB882780F9809313038CE5BE
:0A04B00080931403FFCFF894FFCFF0
:00000001FF
