:100000000C9434000C9446000C9446000C9446006A
:100010000C9446000C9446000C9446000C94460048
:100020000C9446000C9446000C9446000C94460038
:100030000C9446000C9446000C9446000C94460028
:100040000C9446000C9446000C9446000C94460018
:100050000C9446000C9446000C9446000C94480006
:100060000C9446000C94460011241FBECFEFD8E03C
:10007000DEBFCDBF21E0A0E0B1E001C01D92A23003
:10008000B207E1F70E945A000C9480000C94000023
:100090008F938FB78F93809101018F5F80930101C0
:1000A00080B785FB882780F9809300018F918FBFEF
:1000B0008F911895E0E0F3E01192E83083E0F807C3
:1000C000D9F783E080BF80B7886080BF789487EAE3
:1000D000809300039CE5809101018093010380B728
:1000E00085FB882780F9809302038091000180932B
:1000F0000303809101018111909304030000EBCF71
:04010000F894FFCFA1
:00000001FF
