:100000000C9434000C9446000C9446000C9446006A
:100010000C9446000C9446000C9492000C944600FC
:100020000C9446000C9446000C9446000C94460038
:100030000C9446000C9446000C9446000C94460028
:100040000C9448000C9446000C9446000C94460016
:100050000C9446000C9446000C9446000C94460008
:100060000C9446000C94460011241FBECFEFD8E03C
:10007000DEBFCDBF21E0A0E0B1E001C01D92AA30FB
:10008000B207E1F70E94A3000C941B010C9400003E
:100090001F920F920FB60F9211242F933F938F93BD
:1000A0009F93AF93BF938091060190910701A09118
:1000B0000801B09109013091050123E0230F2D378C
:1000C00058F50196A11DB11D2093050180930601ED
:1000D00090930701A0930801B09309018091010159
:1000E00090910201A0910301B09104010196A11D1C
:1000F000B11D8093010190930201A0930301B0937D
:100100000401BF91AF919F918F913F912F910F90DB
:100110000FBE0F901F90189526E8230F0296A11D81
:10012000B11DD2CF1F920F920FB60F9211248F9351
:10013000809100018F5F809300018F910F900FBE1F
:100140000F901F901895789484B5826084BD84B513
:10015000816084BD85B5826085BD85B5816085BDC2
:1001600080916E00816080936E001092810080917A
:100170008100826080938100809181008160809302
:100180008100809180008160809380008091B10027
:1001900084608093B1008091B00081608093B00052
:1001A00080917A00846080937A0080917A008260E6
:1001B00080937A0080917A00816080937A008091A8
:1001C0007A00806880937A001092C1001092000338
:1001D0001092010310920203109203031092040381
:1001E00010920503109206031092070387EA80938A
:1001F00000038CE58093040318E100E4C0E0D0E044
:10020000F894A8951093600000936000789483B7E9
:10021000817F846083BF83B7816083BF889583B704
:100220008E7F83BF8091000180930103209741F36B
:0A0230000E940000E5CFF894FFCF14
:00000001FF
