:100000000C9461000C9473000C9473000C947300B6
:100010000C9473000C9473000C9473000C94730094
:100020000C9473000C9473000C9473000C94A40152
:100030000C9473000C9473000C9473000C94730074
:100040000C945A010C9473000C9473000C9473007C
:100050000C9473000C9473000C9473000C94730054
:100060000C9473000C947300000000002300260021
:10007000290000000000240027002A0000000000E2
:10008000250028002B0004040404040404040202D4
:100090000202020203030303030301020408102007
:1000A0004080010204081020010204081020000012
:1000B0000008000201000003040700000000000027
:1000C000000011241FBECFEFD8E0DEBFCDBF21E07E
:1000D000A0E0B1E001C01D92A231B207E1F70E9499
:1000E000D0010C9479030C940000833081F028F443
:1000F000813099F08230A9F008958730A9F08830D6
:10010000C9F08430B1F4809180008F7D03C080916C
:1001100080008F7780938000089584B58F7784BDA9
:10012000089584B58F7DFBCF8091B0008F77809349
:10013000B00008958091B0008F7DF9CF1F93CF93C9
:10014000DF93282F30E0F901E255FF4F8491F90148
:10015000E656FF4FD491F901EA57FF4FC491CC23E3
:10016000A9F0162F81110E947500EC2FF0E0EE0F20
:10017000FF1FE458FF4FA591B4918FB7F894EC910D
:10018000111108C0D095DE23DC938FBFDF91CF9192
:100190001F910895DE2BF8CFCF93DF9390E0FC0101
:1001A000E656FF4F24918A579F4FFC018491882384
:1001B000D1F090E0880F991FFC01EE58FF4FA591F8
:1001C000B491FC01E458FF4FC591D49161110EC068
:1001D0009FB7F8948C91E22FE0958E238C93288121
:1001E000E223E8839FBFDF91CF9108958FB7F89402
:1001F000EC91E22BEC938FBFF6CF1F93CF93DF935D
:10020000182FEB0161E00E94CC00209739F460E0E8
:10021000812FDF91CF911F910C949E00CF3FD1058C
:1002200011F461E0F5CFE12FF0E0E255FF4FE491EA
:10023000E33031F140F4E130B1F0E230E1F0C038C8
:10024000D1057CF7E4CFE73029F1E83059F1E4300B
:10025000B1F780918000806280938000D0938B0002
:10026000C0938A0004C084B5806884BDC7BDDF9197
:10027000CF911F91089584B5806284BDC8BDF7CF2A
:1002800080918000806880938000D0938900C09323
:100290008800EDCF8091B00080688093B000C0935B
:1002A000B300E5CF8091B00080628093B000C0932E
:1002B000B400DDCF1F920F920FB60F9211242F932F
:1002C0003F938F939F93AF93BF9380910E01909133
:1002D0000F01A0911001B091110130910D0123E0A7
:1002E000230F2D3758F50196A11DB11D20930D0147
:1002F00080930E0190930F01A0931001B093110110
:100300008091090190910A01A0910B01B0910C011B
:100310000196A11DB11D8093090190930A01A0933C
:100320000B01B0930C01BF91AF919F918F913F91C1
:100330002F910F900FBE0F901F90189526E8230F56
:100340000296A11DB11DD2CF1F920F920FB60F9230
:1003500011248F939F93809106019091070101963C
:100360009093070180930601809106019091070107
:1003700080FD07C080E889B9809103018F5F809379
:1003800003019F918F910F900FBE0F901F901895B2
:100390008091BC0087FFFCCF8091B900887F0895D1
:1003A000789484B5826084BD84B5816084BD85B550
:1003B000826085BD85B5816085BD80916E0081605C
:1003C00080936E0010928100809181008260809302
:1003D0008100809181008160809381008091800004
:1003E0008160809380008091B10084608093B1002F
:1003F0008091B00081608093B00080917A00846029
:1004000080937A0080917A00826080937A00809154
:100410007A00816080937A0080917A00806880936E
:100420007A001092C100E0E0F3E01192E83183E03D
:10043000F807D9F760E082E00E94CC0061E087E035
:100440000E94CC0061E083E00E94CC0061E085E086
:100450000E94CC0060E470E083E00E94FD0060EC4C
:1004600070E085E00E94FD001092800010928100F3
:1004700010928500109284008FE390E090938900A1
:10048000809388008AE08093810082E080936F00EF
:100490001092B9008CE08093B80084E08093BC0097
:1004A0007894CC24CA94D12C53ECA52EB12C60E0C6
:1004B000862E60E0962E24EA422E34E8732E809138
:1004C00008018C3008F453C0F89410926F008091AA
:1004D00006019091070127EA20930003209108016B
:1004E0002093010320910401209302032091050130
:1004F00020930303809304039093050380910301E9
:10050000809306038091020180930703809101018B
:100510008093080380910001809309038091B400C7
:1005200080930A0388B580930B038BB180930C03EF
:100530008091B00080930D0384B580930E03809169
:10054000BB0080930F038091B900887F80931003D4
:100550008091780080931103809179008093120339
:1005600089B1809313038CE580931403FFCFE0E4FB
:10057000E0937C0080917A00806480937A0080917F
:100580007A0086FDFCCF0091780010917900E09010
:100590000601F090070150900801602EFDE05F9E7B
:1005A000600C11246E0C8091040190910501800F64
:1005B000911F9093050180930401C62DD0E0BE01E8
:1005C00083E00E94FD00B6016C1B7D0B85E00E945C
:1005D000FD00C0910101D0E0CC0FDD1FE0EBF0E0A9
:1005E0008491ECE9F0E02490E8E8F0E034903110F8
:1005F0006FC085EAC525C827C09301018091B4006A
:1006000038B52091B00094B5830F820F890F909177
:1006100000018927809300014092BC000E94C8011C
:10062000F82EF0EAF093BB007092BC000E94C80163
:10063000182F5092BB007092BC000E94C801582E27
:100640000093BB007092BC000E94C801082FE0928A
:10065000BB007092BC000E94C801E82E6092BB00F3
:100660007092BC000E94C801682E4092BC000E949B
:10067000C801D82F81EA8093BB007092BC000E9411
:10068000C801C82F7092BC000E94C8019091BB00A5
:1006900024E92093BC00209102019227F9261F250E
:1006A00051260525E0266E24D625CD27C827C093E0
:1006B0000201809108018F5F80930801C5010197B5
:1006C000F1F78114910409F4FACE0E940000F3CEF0
:1006D00081110E947500E32DF0E0EE0FFF1FE85935
:1006E000FF4FA591B4918C91282209F482CF8AE51D
:0606F00081CFF894FFCF5A
:00000001FF
