:100000000C9461000C9473000C9473000C947300B6
:100010000C9473000C9473000C9473000C94730094
:100020000C9473000C9473000C9473000C94D7011F
:100030000C9473000C9473000C9473000C94730074
:100040000C948D010C9473000C9473000C94730049
:100050000C9473000C9473000C9473000C94730054
:100060000C9473000C94730000000000240027001F
:100070002A0000000000250028002B0000000000DE
:1000800023002600290004040404040404040202DA
:100090000202020203030303030301020408102007
:1000A0004080010204081020010204081020000012
:1000B0000008000201000003040700000000000027
:1000C000000011241FBECFEFD8E0DEBFCDBF21E07E
:1000D000A0E0B1E001C01D92A131B207E1F70E949A
:1000E000EE010C948B030C940000833081F028F413
:1000F000813099F08230A9F008958730A9F08830D6
:10010000C9F08430B1F4809180008F7D03C080916C
:1001100080008F7780938000089584B58F7784BDA9
:10012000089584B58F7DFBCF8091B0008F77809349
:10013000B00008958091B0008F7DF9CFCF93DF9309
:10014000E0EBF0E08491ECE9F0E0D491E8E8F0E055
:10015000C491CC23A1F081110E947500EC2FF0E036
:10016000EE0FFF1FE458FF4FA591B491EC91ED23E2
:1001700081E090E009F480E0DF91CF91089580E084
:1001800090E0FACF1F93CF93DF93282F30E0F9014F
:10019000E255FF4F8491F901E656FF4FD491F901E2
:1001A000EA57FF4FC491CC23A9F0162F81110E946A
:1001B0007500EC2FF0E0EE0FFF1FEE58FF4FA591FA
:1001C000B4918FB7F894EC91111108C0D095DE234B
:1001D000DC938FBFDF91CF911F910895DE2BF8CF75
:1001E000CF93DF9390E0FC01E656FF4F24918A57AE
:1001F0009F4FFC0184918823D1F090E0880F991FD4
:10020000FC01E859FF4FA591B491FC01EE58FF4F56
:10021000C591D49161110EC09FB7F8948C91E22FD3
:10022000E0958E238C932881E223E8839FBFDF91A2
:10023000CF9108958FB7F894EC91E22BEC938FBF98
:10024000F6CF1F93CF93DF93182FEB0161E00E944D
:10025000F000209739F460E0812FDF91CF911F915A
:100260000C94C200CF3FD10511F461E0F5CFE12F2E
:10027000F0E0E255FF4FE491E33031F140F4E1303A
:10028000B1F0E230E1F0C038D1057CF7E4CFE730DF
:1002900029F1E83059F1E430B1F7809180008062B3
:1002A00080938000D0938B00C0938A0004C084B5F3
:1002B000806884BDC7BDDF91CF911F91089584B53B
:1002C000806284BDC8BDF7CF809180008068809334
:1002D0008000D0938900C0938800EDCF8091B0005A
:1002E00080688093B000C093B300E5CF8091B000E8
:1002F00080628093B000C093B400DDCF8091BC00D9
:1003000087FFFCCF8091B900887F08958093BB0060
:1003100084E88093BC000C947E011F920F920FB66C
:100320000F9211242F933F938F939F93AF93BF937B
:1003300080910D0190910E01A0910F01B0911001DB
:1003400030910C0123E0230F2D3758F50196A11DA4
:10035000B11D20930C0180930D0190930E01A09389
:100360000F01B09310018091080190910901A091B3
:100370000A01B0910B010196A11DB11D80930801E6
:1003800090930901A0930A01B0930B01BF91AF9123
:100390009F918F913F912F910F900FBE0F901F90C3
:1003A000189526E8230F0296A11DB11DD2CF1F92EA
:1003B0000F920FB60F9211248F939F938091050196
:1003C00090910601019690930601809305019F91FB
:1003D0008F910F900FBE0F901F901895789484B551
:1003E000826084BD84B5816084BD85B5826085BD31
:1003F00085B5816085BD80916E00816080936E00BF
:1004000010928100809181008260809381008091B0
:100410008100816080938100809180008160809361
:1004200080008091B10084608093B1008091B00021
:1004300081608093B00080917A00846080937A001C
:1004400080917A00826080937A0080917A00816046
:1004500080937A0080917A00806880937A0010926D
:10046000C100E0E0F3E01192E83183E0F807D9F74A
:1004700060E082E00E94F00061E087E00E94F0000E
:1004800061E083E00E94F00061E085E00E94F000FE
:1004900060E470E083E00E94210160EC70E085E0A0
:1004A0000E9421011092800010928100109285001C
:1004B000109284008FE390E09093890080938800ED
:1004C0008AE08093810082E080936F001092B900EF
:1004D0008CE08093B80084E08093BC007894CC24B6
:1004E000CA94D12C04EA73ECA72EB12CE0E08E2E36
:1004F000E0E09E2E9AE5292E24E8322E34E9632E80
:1005000047EA542E5CE5452E809107018C3008F4B3
:1005100081C0F89410926F008091050190910601BE
:1005200050920003209107012093010320910301C1
:1005300020930203209104012093030321E00097FC
:1005400009F420E02093040321E08233910508F4AC
:1005500020E02093050321E08937910508F020E091
:10056000209306038091020180930703809101018B
:100570008093080380910001809309038091B40067
:1005800080930A0388B580930B038BB180930C038F
:100590008091B00080930D0384B580930E03809109
:1005A000BB0080930F038091B900887F8093100374
:1005B00080917800809311038091790080931203D9
:1005C0000E949E0021E0892B09F420E02093130370
:1005D000409214038091FF02823409F4FFCF1092FD
:1005E000070110920401109203011092020110926F
:1005F000010110920001109206011092050182E0A3
:1006000080936F0078948114910409F47DCF0E9447
:10061000000070CF80E480937C0080917A00806439
:1006200080937A0080917A0086FDFCCFE09078007C
:10063000F0907900809105019091060110910701D9
:100640007E2C8DE0189F700C1124809103019091F5
:1006500004018E0D9F1D9093040180930301C72D0B
:10066000D0E0BE0183E00E942101B6016C1B7D0B2E
:1006700085E00E942101C0910101D0E0CC0FDD1F77
:100680000E949E00892B09F044C085EAC127C82733
:10069000C09301018091B40038B52091B00094B5A9
:1006A000830F820F890F90910001892780930001A9
:1006B0000093BC000E947E0180EA0E948601812F87
:1006C0000E9486018E2D0E948601812F82250E9424
:1006D0008601872D0E9486010093BC000E947E0146
:1006E00081EA0E9486013092BC000E947E019091B6
:1006F000BB006092BC0080910201892780930201B7
:10070000809107018F5F80930701C5010197F1F781
:0A0710007ACF8AE5BBCFF894FFCF43
:00000001FF
