:100000000C946B000C9488000C9488000C9488006D
:100010000C9488000C9488000C9488000C94880040
:100020000C9488000C9488000C9488000C94880030
:100030000C9488000C9488000C9488000C94880020
:100040000C948A000C9488000C9488000C9488000E
:100050000C9488000C9488000C9488000C94880000
:100060000C9488000C94880005A84CCDB2D44EB9ED
:100070003836A9020C50B9918688083CA6AAAA2A4B
:10008000BE000000803F00000000240027002A007E
:1000900000000000250028002B00040404040404D0
:1000A0000404020202020202030303030303010227
:1000B00004081020408001020408102001020408F6
:1000C00010200000000800020100000304070000E7
:1000D00000000000000011241FBECFEFD8E0DEBFFB
:1000E000CDBF11E0A0E0B1E0ECE7FAE002C005907E
:1000F0000D92A430B107D9F721E0A4E0B1E001C02E
:100100001D92A531B207E1F70E94D4000C943C0582
:100110000C9400001F920F920FB60F9211242F9390
:100120003F938F939F93AF93BF93809111019091D1
:100130001201A0911301B09114013091100123E03C
:10014000230F2D3758F50196A11DB11D20931001E5
:100150008093110190931201A0931301B0931401A5
:1001600080910C0190910D01A0910E01B0910F01B1
:100170000196A11DB11D80930C0190930D01A093D8
:100180000E01B0930F01BF91AF919F918F913F915D
:100190002F910F900FBE0F901F90189526E8230FF8
:1001A0000296A11DB11DD2CF789484B5826084BD22
:1001B00084B5816084BD85B5826085BD85B581606B
:1001C00085BD80916E00816080936E0010928100E9
:1001D00080918100826080938100809181008160A4
:1001E0008093810080918000816080938000809165
:1001F000B10084608093B1008091B00081608093F1
:10020000B00080917A00846080937A0080917A00B7
:10021000826080937A0080917A00816080937A0076
:1002200080917A00806880937A001092C100CBEBB5
:10023000D0E0FE01249107EA10E0F80184918823C0
:1002400099F090E0880F991FFC01EA57FF4FA591A4
:10025000B491FC01E057FF4F859194918FB7F894CA
:100260009C91292B2C938FBF3FEC832E30E0932E53
:1002700040E0A42E40E0B42E609108017091090185
:1002800080910A0190910B01C0900001D090010172
:10029000E0900201F09003016F717727882799277A
:1002A0000E943B0320E030E040E05DE30E940D044B
:1002B000A70196010E9458026B017C010E947A04FA
:1002C0002B013C0120E030E040E05FE3C701B601D4
:1002D0000E940D040E94C4029B01AC01C301B20143
:1002E0000E9458022B013C019F7720E030E040E85B
:1002F0005EE30E9458020E9488049B01AC01C090FA
:100300000801D0900901E0900A01F0900B01C301AF
:10031000B2010E940D042B013C01F7E0CF22DD2445
:10032000EE24FF24C701B6016F5F7F4F8F4F9F4FB1
:100330000E943B0320E030E040E85FE30E94580267
:100340009B01AC01C301B2010E94C9026B017C0197
:10035000209104013091050140910601509107015F
:100360000E94580260930401709305018093060176
:10037000909307016091040170910501809106013D
:100380009091070127E137EB41ED58E30E940D04FE
:10039000A70196010E945802609300017093010129
:1003A00080930201909303018091080190910901CB
:1003B000A0910A01B0910B018F709927AA27BB2742
:1003C000892B8A2B8B2B09F034C06091040170912A
:1003D00005018091060190910701F4012491FE012D
:1003E000D490F8013491332321F1222351F02330AA
:1003F00009F443C0C0F5213009F445C0223009F4A6
:1004000046C0E32FF0E0EE0FFF1FE057FF4FE590EF
:10041000F490CFB6F89420E030E0A9010E940804DF
:10042000F70118160CF440C08081D094D822D082F5
:10043000CFBE8091080190910901A0910A01B0916D
:100440000B010196A11DB11D809308019093090134
:10045000A0930A01B0930B01A114B10409F40CCFCD
:100460000E94000009CF2730A9F02830C9F02430BD
:1004700041F6209180002F7D03C0209180002F77CE
:1004800020938000BECF24B52F7724BDBACF24B5EA
:100490002F7DFBCF2091B0002F772093B000B1CFFC
:1004A0002091B0002F7DF9CF8081D82AC0CF50583D
:1004B000BB27AA270E946F020C94BA030E948103F3
:1004C00038F00E94880320F039F49F3F19F426F495
:1004D0000C947E030EF4E095E7FB0C947803E92F6F
:1004E0000E94DF0358F3BA17620773078407950762
:1004F00020F079F4A6F50C9401040EF4E0950B2E8F
:10050000BA2FA02D0B01B90190010C01CA01A00165
:100510001124FF27591B99F0593F50F4503E68F1C0
:100520001A16F040A22F232F342F4427585FF3CF01
:10053000469537952795A795F0405395C9F77EF4D2
:100540001F16BA0B620B730B840BBAF09150A1F01B
:10055000FF0FBB1F661F771F881FC2F70EC0BA0FA1
:10056000621F731F841F48F4879577956795B79529
:10057000F7959E3F08F0B0CF9395880F08F0992724
:10058000EE0F9795879508950E949103E3950C943B
:10059000CB030E94DD020C94BA030E94880358F03A
:1005A0000E94810340F029F45F3F29F00C94780306
:1005B00051110C9402040C947E030E94DF0368F333
:1005C0009923B1F3552391F3951B550BBB27AA270C
:1005D00062177307840738F09F5F5F4F220F331F46
:1005E000441FAA1FA9F335D00E2E3AF0E0E832D00E
:1005F00091505040E695001CCAF72BD0FE2F29D011
:10060000660F771F881FBB1F261737074807AB07E2
:10061000B0E809F0BB0B802DBF01FF2793585F4F57
:100620003AF09E3F510578F00C9478030C94020444
:100630005F3FE4F3983ED4F3869577956795B79539
:10064000F7959F5FC9F7880F911D9695879597F944
:100650000895E1E0660F771F881FBB1F62177307BD
:100660008407BA0720F0621B730B840BBA0BEE1FD2
:1006700088F7E0950895E89409C097FB3EF49095BB
:100680008095709561957F4F8F4F9F4F9923A9F06B
:10069000F92F96E9BB279395F695879577956795FA
:1006A000B795F111F8CFFAF4BB0F11F460FF1BC03E
:1006B0006F5F7F4F8F4F9F4F16C0882311F096E9D1
:1006C00011C0772321F09EE8872F762F05C066237F
:1006D00071F096E8862F70E060E02AF09A95660F38
:1006E000771F881FDAF7880F9695879597F90895F1
:1006F00097F99F6780E870E060E008959FEF80ECD5
:10070000089500240A941616170618060906089577
:1007100000240A94121613061406050608950C9474
:100720007E030E94E703D8F3E894E0E0BB279F57DD
:10073000F0F02AED3FE049EC06C0EE0FBB0F661F5C
:10074000771F881F28F0B23A62077307840728F0E2
:10075000B25A620B730B840BE3959A9572F780384B
:1007600030F49A95BB0F661F771F881FD2F7904809
:100770000C94EE04092E0394000C11F4882352F01B
:10078000BB0F40F4BF2B11F460FF04C06F5F7F4FBD
:100790008F4F9F4F0895EF93E0FF07C0A2EA2AED25
:1007A0003FE049EC5FEB0E946F020E94BA030F909A
:1007B000039401FC9058E8E6F0E00C94010557FD25
:1007C0009058440F551F59F05F3F71F04795880FBF
:1007D00097FB991F61F09F3F79F087950895121656
:1007E00013061406551FF2CF4695F1DF08C0161602
:1007F00017061806991FF1CF8695710561050894B3
:100800000895E894BB2766277727CB0197F90895C9
:100810000E94C80408F48FEF08950E9420040C94ED
:10082000BA030E94810338F00E94880320F09523C8
:1008300011F00C9478030C947E0311240C940204A0
:100840000E94DF0370F3959FC1F3950F50E0551F91
:10085000629FF001729FBB27F00DB11D639FAA2715
:10086000F00DB11DAA1F649F6627B00DA11D661F64
:10087000829F2227B00DA11D621F739FB00DA11D85
:10088000621F839FA00D611D221F749F3327A00D3F
:10089000611D231F849F600D211D822F762F6A2FDB
:1008A00011249F5750409AF0F1F088234AF0EE0F40
:1008B000FF1FBB1F661F771F881F91505040A9F76D
:1008C0009E3F510580F00C9478030C9402045F3F26
:1008D000E4F3983ED4F3869577956795B795F795A9
:1008E000E7959F5FC1F7FE2B880F911D9695879521
:1008F00097F908959F930E9491030F9007FCEE5F74
:100900000C94CB0319F416F40C947E030C94EC04B1
:100910000E94E703B8F39923C9F3B6F39F57550B29
:1009200087FF0E94FA040024A0E640EA9001805864
:100930005695979528F4805C660F771F881F20F0E6
:1009400026173707480730F4621B730B840B2029E6
:1009500031294A2BA69517940794202531254A273B
:1009600058F7660F771F881F20F0261737074807AC
:1009700030F4620B730B840B200D311D411DA095CB
:1009800081F7B901842F9158880F9695879508951E
:10099000990F0008550FAA0BE0E8FEEF1616170690
:1009A000E807F907C0F012161306E407F50798F0F8
:1009B000621B730B840B950B39F40A2661F0232B11
:1009C000242B252B21F408950A2609F4A140A6958D
:1009D0008FEF811D811D08959F3F31F0915020F4CC
:1009E000879577956795B795880F911D969587950B
:1009F00097F9089591505040660F771F881FD2F7DE
:100A000008959F938F937F936F93FF93EF939B0131
:100A1000AC010E940D04EF91FF910E9415052F91EA
:100A20003F914F915F910C940D04DF93CF931F93EF
:100A30000F93FF92EF92DF927B018C01689406C0C6
:100A4000DA2EEF010E942004FE01E894A591259181
:100A5000359145915591A6F3EF010E946F02FE0179
:100A60009701A801DA9469F7DF90EF90FF900F915A
:0C0A70001F91CF91DF910895F894FFCF03
:040A7C000000003E38
:00000001FF
