:100000000C9434000C9446000C9446000C9446006A
:100010000C9446000C9446000C9446000C94460048
:100020000C9446000C9446000C9446000C94460038
:100030000C9446000C9446000C9446000C94460028
:100040000C945D000C9446000C9446000C94460001
:100050000C9446000C9446000C9446000C94A700A7
:100060000C9446000C94460011241FBECFEFD8E03C
:10007000DEBFCDBF21E0A0E0B1E001C01D92AB30FA
:10008000B207E1F70E94BE000C9423010C9400001B
:1000900087EA80930003809101018093010380919E
:1000A00000018093020380B785FB882780F9809345
:1000B00003038CE58093040308951F920F920FB6FB
:1000C0000F9211242F933F938F939F93AF93BF93DE
:1000D0008091070190910801A0910901B0910A0156
:1000E0003091060123E0230F2D3758F50196A11D0D
:1000F000B11D209306018093070190930801A093FE
:100100000901B0930A018091020190910301A0912D
:100110000401B09105010196A11DB11D809302015A
:1001200090930301A0930401B0930501BF91AF9197
:100130009F918F913F912F910F900FBE0F901F9025
:10014000189526E8230F0296A11DB11DD2CF1F924C
:100150000F920FB60F9211248F93809101018F5F40
:100160008093010180B785FB882780F98093000187
:100170008F910F900FBE0F901F901895789484B5B3
:10018000826084BD84B5816084BD85B5826085BD93
:1001900085B5816085BD80916E00816080936E0021
:1001A0001092810080918100826080938100809113
:1001B00081008160809381008091800081608093C4
:1001C00080008091B10084608093B1008091B00084
:1001D00081608093B00080917A00846080937A007F
:1001E00080917A00826080937A0080917A008160A9
:1001F00080937A0080917A00806880937A001092D0
:10020000C100109200031092010310920203109299
:100210000303109204031092050310920603109238
:100220000703F89483E080BF80B7886080BF78942C
:100230000E944800C0E0D0E00E9448002097E1F30F
:0A0240000E940000F9CFF894FFCFF0
:00000001FF
